:020000000000FE
:020001000ED817
:020002000ED816
:020003000ED815
:020004000ED814
:020005000ED813
:020006000ED812
:020007000ED811
:020008000ED810
:020009000ED80F
:02000A000ED80E
:02000B000ED80D
:02000C000ED80C
:02000D000ED80B
:02000E000ED80A
:02000F000ED809
:020010000ED808
:020011000ED807
:020012000ED806
:020013000ED805
:020014000ED804
:020015000ED803
:020016000ED802
:020017000ED801
:020018000ED800
:020019000ED8FF
:02001A000ED8FE
:02001B000ED8FD
:02001C000ED8FC
:02001D000ED8FB
:02001E000ED8FA
:02001F000ED8F9
:020020000ED8F8
:020021000ED8F7
:020022000ED8F6
:020023000ED8F5
:020024000ED8F4
:020025000ED8F3
:020026000ED8F2
:020027000ED8F1
:020028000ED8F0
:020029000ED8EF
:02002A000ED8EE
:02002B000ED8ED
:02002C000ED8EC
:02002D000ED8EB
:02002E000ED8EA
:02002F000ED8E9
:020030000ED8E8
:020031000ED8E7
:020032000ED8E6
:020033000ED8E5
:020034000ED8E4
:020035000ED8E3
:020036000ED8E2
:020037000ED8E1
:020038000ED8E0
:020039000ED8DF
:02003A000ED8DE
:02003B000ED8DD
:02003C000ED8DC
:02003D000ED8DB
:02003E000ED8DA
:02003F000ED8D9
:020040000ED8D8
:020041000ED8D7
:020042000ED8D6
:020043000ED8D5
:020044000ED8D4
:020045000ED8D3
:020046000ED8D2
:020047000ED8D1
:020048000ED8D0
:020049000ED8CF
:02004A000ED8CE
:02004B000ED8CD
:02004C000ED8CC
:02004D000ED8CB
:02004E000ED8CA
:02004F000ED8C9
:020050000ED8C8
:020051000ED8C7
:020052000ED8C6
:020053000ED8C5
:020054000ED8C4
:020055000ED8C3
:020056000ED8C2
:020057000ED8C1
:020058000ED8C0
:020059000ED8BF
:02005A000ED8BE
:02005B000ED8BD
:02005C000ED8BC
:02005D000ED8BB
:02005E000ED8BA
:02005F000ED8B9
:020060000ED8B8
:020061000ED8B7
:020062000ED8B6
:020063000ED8B5
:020064000ED8B4
:020065000ED8B3
:020066000ED8B2
:020067000ED8B1
:020068000ED8B0
:020069000ED8AF
:02006A000ED8AE
:02006B000ED8AD
:02006C000ED8AC
:02006D000ED8AB
:02006E000ED8AA
:02006F000ED8A9
:020070000ED8A8
:020071000ED8A7
:020072000ED8A6
:020073000ED8A5
:020074000ED8A4
:020075000ED8A3
:020076000ED8A2
:020077000ED8A1
:020078000ED8A0
:020079000ED89F
:02007A000ED89E
:02007B000ED89D
:02007C000ED89C
:02007D000ED89B
:02007E000ED89A
:02007F000ED899
:020080000ED898
:020081000ED897
:020082000ED896
:020083000ED895
:020084000ED894
:020085000ED893
:020086000ED892
:020087000ED891
:020088000ED890
:020089000ED88F
:02008A000ED88E
:02008B000ED88D
:02008C000ED88C
:02008D000ED88B
:02008E000ED88A
:02008F000ED889
:020090000ED888
:020091000ED887
:020092000ED886
:020093000ED885
:020094000ED884
:020095000ED883
:020096000ED882
:020097000ED881
:020098000ED880
:020099000ED87F
:02009A000ED87E
:02009B000ED87D
:02009C000ED87C
:02009D000ED87B
:02009E000ED87A
:02009F000ED879
:0200A0000ED878
:0200A1000ED877
:0200A2000ED876
:0200A3000ED875
:0200A4000ED874
:0200A5000ED873
:0200A6000ED872
:0200A7000ED871
:0200A8000ED870
:0200A9000ED86F
:0200AA000ED86E
:0200AB000ED86D
:0200AC000ED86C
:0200AD000ED86B
:0200AE000ED86A
:0200AF000ED869
:0200B0000ED868
:0200B1000ED867
:0200B2000ED866
:0200B3000ED865
:0200B4000ED864
:0200B5000ED863
:0200B6000ED862
:0200B7000ED861
:0200B8000ED860
:0200B9000ED85F
:0200BA000ED85E
:0200BB000ED85D
:0200BC000ED85C
:0200BD000ED85B
:0200BE000ED85A
:0200BF000ED859
:0200C0000ED858
:0200C1000ED857
:0200C2000ED856
:0200C3000ED855
:0200C4000ED854
:0200C5000ED853
:0200C6000ED852
:0200C7000ED851
:0200C8000ED850
:0200C9000ED84F
:0200CA000ED84E
:0200CB000ED84D
:0200CC000ED84C
:0200CD000ED84B
:0200CE000ED84A
:0200CF000ED849
:0200D0000ED848
:0200D1000ED847
:0200D2000ED846
:0200D3000ED845
:0200D4000ED844
:0200D5000ED843
:0200D6000ED842
:0200D7000ED841
:0200D8000ED840
:0200D9000ED83F
:0200DA000ED83E
:0200DB000ED83D
:0200DC000ED83C
:0200DD000ED83B
:0200DE000ED83A
:0200DF000ED839
:0200E0000ED838
:0200E1000ED837
:0200E2000ED836
:0200E3000ED835
:0200E4000ED834
:0200E5000ED833
:0200E6000ED832
:0200E7000ED831
:0200E8000ED830
:0200E9000ED82F
:0200EA000ED82E
:0200EB000ED82D
:0200EC000ED82C
:0200ED000ED82B
:0200EE000ED82A
:0200EF000ED829
:0200F0000ED828
:0200F1000ED827
:0200F2000ED826
:0200F3000ED825
:0200F4000ED824
:0200F5000ED823
:0200F6000ED822
:0200F7000ED821
:0200F8000ED820
:0200F9000ED81F
:0200FA000ED81E
:0200FB000ED81D
:0200FC000ED81C
:0200FD000ED81B
:0200FE000ED81A
:0200FF000000FF
:00000001FF
