:020000000000FE
:020001000000FD
:020002000000FC
:020003000000FB
:020004000000FA
:020005000000F9
:020006000000F8
:020007000000F7
:020008000000F6
:020009000000F5
:02000A000000F4
:02000B00000BE8
:02000C000015DD
:02000D000020D1
:02000E00002AC6
:02000F000036B9
:020010000040AE
:02001100004BA2
:02001200005597
:0200130000608B
:02001400006B7F
:02001500007673
:02001600008167
:02001700008B5C
:02001800009650
:0200190000C81D
:02001A0000FAEA
:02001B00012CB6
:02001C00015E83
:02001D00019050
:02001E0001C21D
:02001F0001F4EA
:020020000226B6
:02002100025883
:02002200028A50
:0200230002BC1D
:0200240002EEEA
:020025000320B6
:02002600035283
:02002700038450
:0200280003B61D
:0200290003E8EA
:02002A00041AB6
:02002B00044C83
:02002C0004A02E
:02002D0004F4D9
:02002E00054982
:02002F00059D2D
:0200300005F1D8
:02003100064582
:0200320006992D
:0200330006EED7
:02003400074281
:0200350007962C
:0200360007EAD7
:02003700083F80
:0200380008932B
:0200390008E7D6
:02003A00093B80
:02003B00098F2B
:02003C0009E4D5
:02003D000A387F
:02003E000A8C2A
:02003F000AAC09
:020040000ACDE7
:020041000AEDC6
:020042000B0DA4
:020043000B2E82
:020044000B4E61
:020045000B6E40
:020046000B8F1E
:020047000BAFFD
:020048000BD0DB
:020049000BF0BA
:02004A000C1098
:02004B000C3176
:02004C000C5155
:02004D000C7134
:02004E000C9212
:02004F000CB2F1
:020050000CD2D0
:020051000CF3AE
:020052000D138C
:020053000D336B
:020054000D5449
:020055000D7428
:020056000D9407
:020057000DB5E5
:020058000DD5C4
:020059000DF6A2
:02005A000E6630
:02005B000E365F
:02005C000E573D
:02005D000E771C
:02005E000E97FB
:02005F000EB8D9
:020060000ED8B8
:020061000ED0BF
:020062000EC9C5
:020063000EC1CC
:020064000EB9D3
:020065000EB2D9
:020066000EAAE0
:020067000EA2E7
:020068000E9AEE
:020069000E93F4
:02006A000E8BFB
:02006B000E8302
:02006C000E7C08
:02006D000E740F
:02006E000E6C16
:02006F000E651C
:020070000E5D23
:020071000E552A
:020072000E4E30
:020073000E4637
:020074000E3E3E
:020075000E3645
:020076000E2F4B
:020077000E2752
:020078000E1F59
:020079000E185F
:02007A000E1066
:02007B000E086D
:02007C000E0173
:02007D000DF97B
:02007E000DF182
:02007F000DEA88
:020080000DE28F
:020081000DDA96
:020082000DD29D
:020083000DCBA3
:020084000DC3AA
:020085000DBBB1
:020086000DB4B7
:020087000DACBE
:020088000D87E2
:020089000D6206
:02008A000D3E29
:02008B000D194D
:02008C000CF472
:02008D000CCF96
:02008E000CABB9
:02008F000C86DD
:020090000C6101
:020091000C3C25
:020092000C1848
:020093000BF36D
:020094000BCE91
:020095000BA9B5
:020096000B85D8
:020097000B60FC
:020098000B3B20
:020099000B1644
:02009A000AF169
:02009B000ACD8C
:02009C000AA8B0
:02009D000A83D4
:02009E000A5EF8
:02009F000A3A1B
:0200A0000A153F
:0200A10009F064
:0200A20009CB88
:0200A30009A7AB
:0200A4000982CF
:0200A500095DF3
:0200A600093817
:0200A70009143A
:0200A80008EF5F
:0200A90008CA83
:0200AA00089EAE
:0200AB000871DA
:0200AC00084505
:0200AD00081930
:0200AE0007EC5D
:0200AF0007C088
:0200B0000794B3
:0200B1000767DF
:0200B200073B0A
:0200B300070F35
:0200B40006E361
:0200B50006B68D
:0200B600068AB8
:0200B700065EE3
:0200B80006310F
:0200B90006053A
:0200BA0005D966
:0200BB0005AC92
:0200BC000580BD
:0200BD000554E8
:0200BE00052714
:0200BF0004FB40
:0200C00004CF6B
:0200C10004A297
:0200C2000476C2
:0200C300044AED
:0200C400041D19
:0200C50003F145
:0200C60003C570
:0200C70003989C
:0200C800036CC7
:0200C9000340F2
:0200CA0003141D
:0200CB0002E74A
:0200CC0002BB75
:0200CD00028FA0
:0200CE000262CC
:0200CF000236F7
:0200D000020A22
:0200D10001DD4F
:0200D20001B17A
:0200D3000185A5
:0200D4000158D1
:0200D500012CFC
:0200D600011C0B
:0200D700010C1A
:0200D80000FD29
:0200D90000ED38
:0200DA0000DD47
:0200DB0000CD56
:0200DC0000BD65
:0200DD0000AE73
:0200DE00009E82
:0200DF00008E91
:0200E000007EA0
:0200E100006EAF
:0200E200005FBD
:0200E300004FCC
:0200E400003FDB
:0200E500002FEA
:0200E6000020F8
:0200E700001007
:0200E800000016
:0200E900000015
:0200EA00000014
:0200EB00000013
:0200EC00000012
:0200ED00000011
:0200EE00000010
:0200EF0000000F
:0200F00000000E
:0200F10000000D
:0200F20000000C
:0200F30000000B
:0200F40000000A
:0200F500000009
:0200F600000008
:0200F700000007
:0200F800000006
:0200F900000005
:0200FA00000004
:0200FB00000003
:0200FC00000002
:0200FD00000001
:0200FE00000000
:0200FF000000FF
:00000001FF
