:020000000000FE
:02000100000EEF
:02000200000FED
:02000300001EDD
:02000400002DCD
:02000500003BBE
:02000600004AAE
:02000700004BAC
:0200080000599D
:0200090000678E
:02000A0000688C
:02000B0000777C
:02000C0000955D
:02000D0000A34E
:02000E0000C22E
:02000F0000D11E
:0200100000E00E
:0200110000FDF0
:02001200011BD0
:020013000139B1
:02001400015792
:02001500017573
:0200160001A146
:0200170001DD09
:020018000236AE
:02001900029F44
:02001A0002DA08
:02001B000316CA
:02001C0003617E
:02001D0003BA24
:02001E0003F6E7
:02001F000413C8
:020020000431A9
:02002100044F8A
:02002200048B4D
:0200230004B720
:0200240004D501
:0200250004F3E2
:020026000501D2
:020027000502D0
:020028000511C0
:020029000502CE
:02002A0004F3DD
:02002B0004D5FA
:02002C0004B717
:02002D0004A924
:02002E00049933
:02002F00049A31
:02003000049B2F
:02003100048841
:0200320004893F
:02003300048A3D
:02003400048B3B
:02003500049A2B
:0200360004A91B
:0200370004C6FD
:0200380004D5ED
:0200390004E4DD
:02003A000511AE
:02003B00053E80
:02003C00057944
:02003D0005A616
:02003E0005D3E8
:02003F0005F0CA
:02004000060EAA
:02004100062C8B
:02004200064A6C
:0200430006684D
:0200440006773D
:0200450006941F
:0200460006B200
:0200470006DFD2
:02004800070CA3
:02004900071B93
:02004A00075657
:02004B0007921A
:02004C0007BFEC
:02004D0007FAB0
:02004E00083672
:02004F00087136
:0200500008BCEA
:0200510008CBDA
:0200520008DACA
:0200530008E9BA
:0200540009079A
:0200550009158B
:02005600091689
:0200570009247A
:0200580009326B
:02005900093369
:02005A0009415A
:02005B00094258
:02005C00094356
:02005D00095048
:02005E00095146
:02005F00095244
:02006000096035
:02006100095143
:02006200094350
:02006300094250
:02006400094150
:0200650009335D
:0200660009246B
:02006700091579
:02006800090786
:0200690008F895
:02006A0008E9A3
:02006B0008DAB1
:02006C0008CBBF
:02006D0008BCCD
:02006E0008ADDB
:02006F00089EE9
:02007000088FF7
:02007100086322
:0200720008453F
:0200730008364D
:0200740007EB98
:0200750007A1E1
:0200760007740D
:02007700073848
:0200780006FD83
:0200790006C1BE
:02007A00067707
:02007B00065924
:02007C00062C50
:02007D00060E6D
:02007E0005F08B
:02007F0005E298
:0200800005C4B5
:0200810005B5C3
:0200820005A6D1
:020083000588EE
:020084000579FC
:02008500056A0A
:02008600054D26
:02008700053E34
:02008800052E43
:02008900052F41
:02008A0005303F
:02008B0005204E
:02008C0005105D
:02008D0005115B
:02008E00050269
:02008F00051159
:02009000051F4A
:02009100052048
:02009200052E39
:02009300052F37
:02009400053035
:02009500053D27
:02009600053E25
:0200970005461C
:0200980005471A
:02009900054818
:02009A00054916
:02009B00054A14
:02009C00054B12
:02009D00054C10
:02009E00054E0D
:02009F0005500A
:0200A000055504
:0200A100055BFD
:0200A200055205
:0200A300055006
:0200A400054E07
:0200A500054C08
:0200A600053E15
:0200A700053D15
:0200A800052F22
:0200A900052A26
:0200AA00052827
:0200AB0005202E
:0200AC00051F2E
:0200AD0005113B
:0200AE0005103B
:0200AF0004F358
:0200B00004E466
:0200B10004C683
:0200B20004A99F
:0200B300046DDA
:0200B400044006
:0200B50003F650
:0200B60003C97C
:0200B7000352F2
:0200B80003162D
:0200B90002E95A
:0200BA000290B2
:0200BB000245FC
:0200BC0001FB46
:0200BD0001A19F
:0200BE000166D9
:0200BF00013905
:0200C000012A13
:0200C100011B21
:0200C200010C2F
:0200C30000D16A
:0200C40000B387
:0200C50000A495
:0200C6000086B2
:0200C7000077C0
:0200C8000068CE
:0200C900005ADB
:0200CA000059DB
:0200CB00004BE8
:0200CC00003CF6
:0200CD00002D04
:0200CE00001E12
:0200CF00000F20
:0200D00000002E
:0200D10000002D
:0200D20000002C
:0200D30000002B
:0200D40000002A
:0200D500000029
:0200D600000028
:0200D700000027
:0200D800000026
:0200D900000025
:0200DA00000024
:0200DB00000023
:0200DC00000022
:0200DD00000021
:0200DE00000020
:0200DF0000001F
:0200E00000001E
:0200E10000001D
:0200E20000001C
:0200E30000001B
:0200E40000001A
:0200E500000019
:0200E600000018
:0200E700000017
:0200E800000016
:0200E900000015
:0200EA00000014
:0200EB00000013
:0200EC00000012
:0200ED00000011
:0200EE00000010
:0200EF0000000F
:0200F00000000E
:0200F10000000D
:0200F20000000C
:0200F30000000B
:0200F40000000A
:0200F500000009
:0200F600000008
:0200F700000007
:0200F800000006
:0200F900000005
:0200FA00000004
:0200FB00000003
:0200FC00000002
:0200FD00000001
:0200FE00000000
:0200FF000000FF
:00000001FF
