:020000000000FE
:020001000005F8
:02000200000AF2
:02000300000EED
:020004000010EA
:020005000013E6
:020006000019DF
:02000700001ED9
:020008000022D4
:020009000023D2
:02000A000028CC
:02000B00002DC6
:02000C000037BB
:02000D00003CB5
:02000E000041AF
:02000F000046A9
:02001000004BA3
:0200110000509D
:02001200005A92
:02001300005E8D
:02001400006387
:02001500006D7C
:02001600007276
:02001700008166
:02001800008660
:02001900008B5A
:02001A0000954F
:02001B00009F44
:02001C0000A939
:02001D0000B32E
:02001E0000C21E
:02001F0000CC13
:0200200000D608
:0200210000DB02
:0200220000E0FC
:0200230000F3E8
:020024000102D7
:02002500010CCC
:020026000116C1
:020027000125B1
:0200280001488D
:02002900015C78
:02002A000111C2
:02002B00018E44
:02002C00019C35
:02002D0001BA16
:02002E0001DDF2
:02002F0001F1DD
:020030000209C3
:020031000223A8
:02003200024585
:02003300025475
:02003400025E6A
:02003500027255
:02003600029531
:0200370002A421
:0200380002A91B
:0200390002B310
:02003A0002BD05
:02003B0002C7FA
:02003C0002D0F0
:02003D0002D5EA
:02003E0002DAE4
:02003F0002E4D9
:0200400002E9D3
:0200410002EECD
:0200420002F8C2
:0200430002FDBC
:020044000302B5
:020045000307AF
:02004600030CA9
:0200470003169E
:02004800031B98
:02004900032092
:02004A00031B96
:02004B0003169A
:02004C0003109F
:02004D0003119D
:02004E00030CA1
:02004F000307A5
:020050000301AA
:020051000302A8
:0200520002FDAD
:0200530002F8B1
:0200540002F3B5
:0200550002F2B5
:0200560002EEB8
:0200570002E9BC
:0200580002E8BC
:0200590002E6BD
:02005A0002E7BB
:02005B0002E8B9
:02005C0002E9B7
:02005D0002EAB5
:02005E0002ECB2
:02005F0002EEAF
:0200600002EFAD
:0200610002F3A8
:0200620002F5A5
:0200630002F8A1
:0200640002F5A3
:0200650002FC9B
:0200660002FD99
:02006700030292
:0200680003048F
:0200690003068C
:02006A0003078A
:02006B0003068A
:02006C0003028D
:02006D0002FE91
:02006E0002FD91
:02006F0002F895
:0200700002F696
:0200710002F497
:0200720002F397
:0200730002EE9B
:0200740002E99F
:0200750002E89F
:0200760002E4A2
:0200770002DFA6
:0200780002DEA6
:0200790002DDA6
:02007A0002DCA6
:02007B0002DAA7
:02007C0002D5AB
:02007D0002DAA5
:02007E0002DCA2
:02007F0002DF9E
:0200800002E09C
:0200810002E299
:0200820002E496
:0200830002E990
:0200840002EC8C
:0200850002EE89
:0200860002F383
:0200870002F87D
:0200880002F97B
:0200890002FD76
:02008A0002FE74
:02008B00030070
:02008C0003026D
:02008D0003006E
:02008E00030766
:02008F0003026A
:0200900002FB71
:0200910002FD6E
:0200920002FB6F
:0200930002F871
:0200940002F672
:0200950002F473
:0200960002F373
:0200970002F273
:0200980002F173
:0200990002EF74
:02009A0002EE74
:02009B0002E978
:02009C0002E47C
:02009D0002E07F
:02009E0002DF7F
:02009F0002DA83
:0200A00002D587
:0200A10002CC8F
:0200A20002BD9D
:0200A30002B3A6
:0200A400029FB9
:0200A5000295C2
:0200A6000290C6
:0200A7000286CF
:0200A8000277DD
:0200A9000268EB
:0200AA00025EF4
:0200AB000254FD
:0200AC00024F01
:0200AD0002400F
:0200AE00023618
:0200AF00022D20
:0200B000021E2E
:0200B100020E3D
:0200B20002004A
:0200B30001E268
:0200B40001D376
:0200B50001BF89
:0200B60001AB9C
:0200B7000197AF
:0200B8000189BC
:0200B900017ACA
:0200BA000166DD
:0200BB00014DF5
:0200BC0001340D
:0200BD0001251B
:0200BE0001112E
:0200BF0000FD42
:0200C00000F34B
:0200C10000EF4E
:0200C20000EA52
:0200C30000DB60
:0200C40000CC6E
:0200C50000C772
:0200C60000B880
:0200C70000B384
:0200C80000AE88
:0200C90000A491
:0200CA00009A9A
:0200CB000090A3
:0200CC000086AC
:0200CD00007BB6
:0200CE000072BE
:0200CF000068C7
:0200D0000063CB
:0200D100005ECF
:0200D2000059D3
:0200D3000055D6
:0200D4000054D6
:0200D5000050D9
:0200D600004BDD
:0200D7000046E1
:0200D8000045E1
:0200D9000041E4
:0200DA00003FE5
:0200DB00003CE7
:0200DC00003BE7
:0200DD00003AE7
:0200DE000037E9
:0200DF000036E9
:0200E0000032EC
:0200E100002DF0
:0200E200002CF0
:0200E3000028F3
:0200E4000027F3
:0200E5000026F3
:0200E6000023F5
:0200E7000022F5
:0200E800001EF8
:0200E9000019FC
:0200EA000018FC
:0200EB000014FF
:0200EC00001002
:0200ED00000F02
:0200EE00000A06
:0200EF0000050A
:0200F00000000E
:0200F10000000D
:0200F20000000C
:0200F30000000B
:0200F40000000A
:0200F500000009
:0200F600000008
:0200F700000007
:0200F800000006
:0200F900000005
:0200FA00000004
:0200FB00000003
:0200FC00000002
:0200FD00000001
:0200FE00000000
:0200FF000000FF
:00000001FF
