:020000000000FE
:020001000000FD
:020002000000FC
:020003000000FB
:020004000000FA
:020005000000F9
:020006000000F8
:020007000000F7
:02000800000BEB
:020009000015E0
:02000A000020D4
:02000B00002BC8
:02000C000035BD
:02000D000040B1
:02000E00004BA5
:02000F00005699
:0200100000608E
:0200110000806D
:02001200008B61
:02001300009655
:0200140000A04A
:0200150000AB3E
:0200160000B632
:0200170000CB1C
:0200180000D610
:0200190000EBFA
:02001A0000FDE7
:02001B000101E1
:02001C00010BD6
:02001D000136AA
:02001E00015689
:02001F00016C72
:02002000018C51
:0200210001AC30
:0200220001CC0F
:0200230001F7E3
:020024000217C1
:020025000237A0
:0200260002577F
:0200270002775E
:0200280002A232
:0200290002D7FC
:02002A0002ECE6
:02002B000302CE
:02002C000317B8
:02002D0003428C
:02002E00035776
:02002F00037755
:0200300003A229
:0200310003C208
:0200320003CDFC
:0200330003DEEA
:0200340003E2E5
:0200350003F7CF
:0200360003F7CE
:0200370003F8CC
:020038000400C2
:020039000402BF
:02003A000400C0
:02003B0003F8C8
:02003C0003F7C8
:02003D0003F5C9
:02003E0003EDD0
:02003F0003EDCF
:0200400003E6D5
:0200410003E2D8
:0200420003D9E0
:0200430003D7E1
:0200440003CDEA
:0200450003C4F2
:0200460003C2F3
:0200470003B8FC
:0200480003B7FC
:0200490003B8FA
:02004A0003CDE4
:02004B0003D8D8
:02004C0003EDC2
:02004D000402AB
:02004E00043874
:02004F00044D5E
:02005000046347
:02005100047831
:02005200048D1B
:0200530004A304
:0200540004B8EE
:0200550004C3E2
:0200560004E3C1
:0200570004EEB5
:0200580004F8AA
:0200590005039D
:02005A00050E91
:02005B0005237B
:02005C00052E6F
:02005D00053666
:02005E00053863
:02005F00053664
:02006000054356
:02006100054058
:02006200053A5D
:0200630005385E
:02006400052E67
:02006500052371
:0200660005187B
:02006700050E84
:0200680005038E
:02006900050090
:02006A0004FA96
:02006B0004F897
:02006C0004F698
:02006D0004F499
:02006E0004F399
:02006F0004F299
:0200700004F397
:0200710004F495
:0200720004F692
:02007300050086
:02007400050382
:02007500050381
:02007600050083
:0200770005235F
:0200780005433E
:02007900055927
:02007A00057906
:02007B000599E5
:02007C0005B9C4
:02007D0005D9A3
:02007E0005EE8D
:02007F00060E6B
:02008000062454
:02008100062E49
:0200820006393D
:02008300064431
:02008400064E26
:0200850006591A
:0200860006640E
:02008700066F02
:020088000684EC
:02008900068FE0
:02008A000690DE
:02008B000697D6
:02008C000699D3
:02008D0006A4C7
:02008E000699D1
:02008F000697D2
:020090000694D4
:02009100068FD8
:02009200068BDB
:020093000684E1
:020094000679EB
:020095000675EE
:020096000664FE
:02009700065908
:0200980006441C
:02009900060E51
:02009A0005E47B
:02009B0005B9A5
:02009C00058ECF
:02009D000578E4
:02009E000563F8
:02009F00054317
:0200A000050E4B
:0200A10004EE6B
:0200A20004CE8A
:0200A30004ADAA
:0200A400046DE9
:0200A50004381D
:0200A600040252
:0200A70003D87C
:0200A80003ADA6
:0200A90003D181
:0200AA0003371A
:0200AB0003222E
:0200AC0002E26E
:0200AD0002CC83
:0200AE0002A2AC
:0200AF000277D6
:0200B0000257F5
:0200B100022C1F
:0200B200021733
:0200B30001F753
:0200B40001E168
:0200B50001B692
:0200B6000196B1
:0200B7000194B2
:0200B8000181C4
:0200B900016CD8
:0200BA000156ED
:0200BB0001360C
:0200BC00012120
:0200BD0001162A
:0200BE00010B34
:0200BF0000F649
:0200C00000E15D
:0200C10000D667
:0200C20000C07C
:0200C30000B685
:0200C40000AB8F
:0200C50000A099
:0200C6000094A4
:0200C7000096A1
:0200C800008BAB
:0200C9000080B5
:0200CA000076BE
:0200CB00006BC8
:0200CC000069C9
:0200CD000060D1
:0200CE000056DA
:0200CF000055DA
:0200D0000053DB
:0200D100004BE2
:0200D2000043E9
:0200D3000040EB
:0200D400003EEC
:0200D500003CED
:0200D6000035F3
:0200D700002BFC
:0200D800002AFC
:0200D900002302
:0200DA00002004
:0200DB00001E05
:0200DC0000170B
:0200DD0000160B
:0200DE0000150B
:0200DF0000140B
:0200E000000E10
:0200E100000C11
:0200E200000B11
:0200E300000A11
:0200E400000911
:0200E500000811
:0200E600000711
:0200E700000710
:0200E800000610
:0200E90000060F
:0200EA0000050F
:0200EB0000050E
:0200EC0000040E
:0200ED0000040D
:0200EE0000030D
:0200EF0000030C
:0200F00000030B
:0200F10000020B
:0200F20000020A
:0200F300000209
:0200F400000109
:0200F500000108
:0200F600000107
:0200F700000106
:0200F800000006
:0200F900000005
:0200FA00000004
:0200FB00000003
:0200FC00000002
:0200FD00000001
:0200FE00000000
:0200FF000000FF
:00000001FF
