:020000000000FE
:020001000008F5
:02000200000FED
:02000300001EDD
:02000400002DCD
:02000500003CBD
:02000600005B9D
:02000700006295
:02000800006A8C
:0200090000797C
:02000A0000886C
:02000B00008F64
:02000C00009E54
:02000D0000A64B
:02000E0000BD33
:02000F0000D31C
:0200100000E20C
:020011000117D5
:02001200018863
:0200130001D416
:020014000201E7
:02001500027275
:0200160002CD19
:020017000311D3
:02001800032FB4
:0200190003D50D
:02001A000419C7
:02001B00044699
:02001C00045D81
:02001D00046C71
:02001E00048A52
:02001F0004A13A
:0200200004B02A
:0200210004A831
:02002200046573
:020023000428AF
:0200240003FBDC
:0200250003CE08
:0200260003A035
:02002700038A4A
:0200280003468D
:02002900033E94
:02002A0003379A
:02002B0003319F
:02002C00032FA0
:02002D0003339B
:02002E00034687
:02002F00035577
:02003000036B60
:02003100037357
:02003200038247
:02003300039632
:0200340003982F
:0200350003A026
:02003600039134
:02003700038A3A
:02003800037B48
:0200390003645E
:02003A00035C65
:02003B00033789
:02003C0003209F
:02003D000309B5
:02003E000318A5
:02003F0003209C
:02004000032F8C
:02004100034674
:02004200035C5D
:02004300036B4D
:02004400038A2D
:0200450003A016
:0200460003A80D
:0200470003AF05
:0200480003A013
:0200490003733F
:02004A0003377A
:02004B0002CDE4
:02004C0002A010
:02004D0002723D
:02004E00021F8F
:02004F0001F2BC
:0200500001CCE1
:02005100019F0D
:0200520001901B
:02005300017238
:02005400015B4E
:02005500015454
:02005600014C5B
:02005700014561
:0200580001465F
:02005900015450
:02005A00016A39
:02005B00017929
:02005C00018120
:02005D00019808
:02005E0001B6E9
:02005F0001BDE1
:0200600001D4C9
:0200610001F2AA
:02006200021F7B
:02006300023E5B
:02006400027226
:020065000298FF
:0200660002CDC9
:0200670003098B
:0200680003375C
:0200690003642E
:02006A00037B16
:02006B00038A06
:02006C00038E01
:02006D000391FD
:02006E000393FA
:02006F000391FB
:02007000038EFD
:02007100038CFE
:02007200038AFF
:020073000389FF
:02007400038CFB
:020075000391F5
:0200760003A0E5
:0200770003A2E2
:0200780003A5DE
:0200790003A7DB
:02007A0003A8D9
:02007B0003A9D7
:02007C0003AFD0
:02007D0003B4CA
:02007E0003B6C7
:02007F0003BDBF
:0200800003BEBD
:0200810003BCBE
:0200820003B7C2
:0200830003B3C5
:0200840003AFC8
:0200850003A8CE
:0200860003A0D5
:020087000399DB
:020088000397DC
:020089000391E1
:02008A000373FE
:02008B0003640C
:02008C00033E31
:02008D0003204E
:02008E0002FA74
:02008F0002D09D
:0200900002CE9E
:0200910002CC9F
:0200920002CAA0
:0200930002CC9D
:0200940002CE9A
:0200950002D097
:0200960002FA6C
:02009700032044
:0200980003461D
:020099000364FE
:02009A00038AD7
:02009B0003B7A9
:02009C0003F36C
:02009D00041944
:02009E00044616
:02009F000483D8
:0200A0000465F5
:0200A100043F1A
:0200A200042137
:0200A300041245
:0200A40003FB5C
:0200A50003CE88
:0200A60003AFA6
:0200A7000399BB
:0200A8000373E0
:0200A9000364EE
:0200AA000382CF
:0200AB000399B7
:0200AC0003A8A7
:0200AD0003B797
:0200AE0003CE7F
:0200AF0003B795
:0200B00003A0AB
:0200B100037BCF
:0200B2000364E5
:0200B300033711
:0200B400032F18
:0200B50003182E
:0200B60002FA4C
:0200B70002E461
:0200B80002CD77
:0200B90002D56E
:0200BA0002DC66
:0200BB0002E25F
:0200BC0002E35D
:0200BD0002E55A
:0200BE0002E757
:0200BF0002DC61
:0200C00002C577
:0200C10002BE7D
:0200C20002A793
:0200C3000289B0
:0200C4000254E4
:0200C500022E09
:0200C60001EB4C
:0200C70001A78F
:0200C8000179BC
:0200C9000154E0
:0200CA00011023
:0200CB0000EA49
:0200CC0000C46E
:0200CD0000B57C
:0200CE00009E92
:0200CF000080AF
:0200D0000071BD
:0200D1000053DA
:0200D200004BE1
:0200D300003CEF
:0200D400002604
:0200D500002009
:0200D600001E0A
:0200D70000180F
:0200D800001610
:0200D900000F16
:0200DA0000081C
:0200DB0000071C
:0200DC0000031F
:0200DD0000021F
:0200DE0000011F
:0200DF0000001F
:0200E00000001E
:0200E10000001D
:0200E20000001C
:0200E30000001B
:0200E40000001A
:0200E500000019
:0200E600000018
:0200E700000017
:0200E800000016
:0200E900000015
:0200EA00000014
:0200EB00000013
:0200EC00000012
:0200ED00000011
:0200EE00000010
:0200EF0000000F
:0200F00000000E
:0200F10000000D
:0200F20000000C
:0200F30000000B
:0200F40000000A
:0200F500000009
:0200F600000008
:0200F700000007
:0200F800000006
:0200F900000005
:0200FA00000004
:0200FB00000003
:0200FC00000002
:0200FD00000001
:0200FE00000000
:0200FF000000FF
:00000001FF
